{
  "address": "0x0F8021606bc9f15348B9573AfFfF177c001eAD24",
  "abi": [
    {
      "inputs": [
        {
          "internalType": "address",
          "name": "vrfCoordinatorV2",
          "type": "address"
        },
        {
          "internalType": "uint64",
          "name": "subscriptionId",
          "type": "uint64"
        },
        {
          "internalType": "bytes32",
          "name": "gasLane",
          "type": "bytes32"
        },
        {
          "internalType": "uint256",
          "name": "interval",
          "type": "uint256"
        },
        {
          "internalType": "uint256",
          "name": "entranceFee",
          "type": "uint256"
        },
        {
          "internalType": "uint32",
          "name": "callbackGasLimit",
          "type": "uint32"
        }
      ],
      "stateMutability": "nonpayable",
      "type": "constructor"
    },
    {
      "inputs": [
        {
          "internalType": "address",
          "name": "have",
          "type": "address"
        },
        {
          "internalType": "address",
          "name": "want",
          "type": "address"
        }
      ],
      "name": "OnlyCoordinatorCanFulfill",
      "type": "error"
    },
    {
      "inputs": [],
      "name": "Raffle__RaffleNotOpen",
      "type": "error"
    },
    {
      "inputs": [],
      "name": "Raffle__SendMoreToEnterRaffle",
      "type": "error"
    },
    {
      "inputs": [],
      "name": "Raffle__TransferFailed",
      "type": "error"
    },
    {
      "inputs": [
        {
          "internalType": "uint256",
          "name": "currentBalance",
          "type": "uint256"
        },
        {
          "internalType": "uint256",
          "name": "numPlayers",
          "type": "uint256"
        },
        {
          "internalType": "uint256",
          "name": "raffleState",
          "type": "uint256"
        }
      ],
      "name": "Raffle__UpkeepNotNeeded",
      "type": "error"
    },
    {
      "anonymous": false,
      "inputs": [
        {
          "indexed": true,
          "internalType": "address",
          "name": "player",
          "type": "address"
        }
      ],
      "name": "RaffleEnter",
      "type": "event"
    },
    {
      "anonymous": false,
      "inputs": [
        {
          "indexed": false,
          "internalType": "uint256",
          "name": "requestId",
          "type": "uint256"
        },
        {
          "indexed": false,
          "internalType": "uint256[]",
          "name": "randomWords",
          "type": "uint256[]"
        }
      ],
      "name": "RequestFulfilled",
      "type": "event"
    },
    {
      "anonymous": false,
      "inputs": [
        {
          "indexed": false,
          "internalType": "uint256",
          "name": "requestId",
          "type": "uint256"
        },
        {
          "indexed": false,
          "internalType": "uint32",
          "name": "numWords",
          "type": "uint32"
        }
      ],
      "name": "RequestSent",
      "type": "event"
    },
    {
      "anonymous": false,
      "inputs": [
        {
          "indexed": true,
          "internalType": "uint256",
          "name": "requestId",
          "type": "uint256"
        }
      ],
      "name": "RequestedRaffleWinner",
      "type": "event"
    },
    {
      "anonymous": false,
      "inputs": [
        {
          "indexed": true,
          "internalType": "address",
          "name": "requestId",
          "type": "address"
        }
      ],
      "name": "WinnerPicked",
      "type": "event"
    },
    {
      "inputs": [
        {
          "internalType": "bytes",
          "name": "",
          "type": "bytes"
        }
      ],
      "name": "checkUpkeep",
      "outputs": [
        {
          "internalType": "bool",
          "name": "upkeepNeeded",
          "type": "bool"
        },
        {
          "internalType": "bytes",
          "name": "",
          "type": "bytes"
        }
      ],
      "stateMutability": "view",
      "type": "function"
    },
    {
      "inputs": [],
      "name": "enterRaffle",
      "outputs": [],
      "stateMutability": "payable",
      "type": "function"
    },
    {
      "inputs": [],
      "name": "getEntranceFee",
      "outputs": [
        {
          "internalType": "uint256",
          "name": "",
          "type": "uint256"
        }
      ],
      "stateMutability": "view",
      "type": "function"
    },
    {
      "inputs": [],
      "name": "getInterval",
      "outputs": [
        {
          "internalType": "uint256",
          "name": "",
          "type": "uint256"
        }
      ],
      "stateMutability": "view",
      "type": "function"
    },
    {
      "inputs": [],
      "name": "getLastTimeStamp",
      "outputs": [
        {
          "internalType": "uint256",
          "name": "",
          "type": "uint256"
        }
      ],
      "stateMutability": "view",
      "type": "function"
    },
    {
      "inputs": [],
      "name": "getNumWords",
      "outputs": [
        {
          "internalType": "uint256",
          "name": "",
          "type": "uint256"
        }
      ],
      "stateMutability": "pure",
      "type": "function"
    },
    {
      "inputs": [],
      "name": "getNumberOfPlayers",
      "outputs": [
        {
          "internalType": "uint256",
          "name": "",
          "type": "uint256"
        }
      ],
      "stateMutability": "view",
      "type": "function"
    },
    {
      "inputs": [
        {
          "internalType": "uint256",
          "name": "index",
          "type": "uint256"
        }
      ],
      "name": "getPlayer",
      "outputs": [
        {
          "internalType": "address",
          "name": "",
          "type": "address"
        }
      ],
      "stateMutability": "view",
      "type": "function"
    },
    {
      "inputs": [],
      "name": "getRaffleState",
      "outputs": [
        {
          "internalType": "enum Raffle.RaffleState",
          "name": "",
          "type": "uint8"
        }
      ],
      "stateMutability": "view",
      "type": "function"
    },
    {
      "inputs": [],
      "name": "getRecentWinner",
      "outputs": [
        {
          "internalType": "address",
          "name": "",
          "type": "address"
        }
      ],
      "stateMutability": "view",
      "type": "function"
    },
    {
      "inputs": [],
      "name": "getRequestConfirmations",
      "outputs": [
        {
          "internalType": "uint256",
          "name": "",
          "type": "uint256"
        }
      ],
      "stateMutability": "pure",
      "type": "function"
    },
    {
      "inputs": [
        {
          "internalType": "bytes",
          "name": "",
          "type": "bytes"
        }
      ],
      "name": "performUpkeep",
      "outputs": [],
      "stateMutability": "nonpayable",
      "type": "function"
    },
    {
      "inputs": [
        {
          "internalType": "uint256",
          "name": "requestId",
          "type": "uint256"
        },
        {
          "internalType": "uint256[]",
          "name": "randomWords",
          "type": "uint256[]"
        }
      ],
      "name": "rawFulfillRandomWords",
      "outputs": [],
      "stateMutability": "nonpayable",
      "type": "function"
    }
  ],
  "transactionHash": "0x2221178444cf566d16bb5ae8c0bf25fc01c9fe4576dbe85f5969bbd976e3abe1",
  "args": [
    "0x2ca8e0c643bde4c2e08ab1fa0da3401adad7734d",
    "3643",
    "0x79d3d8832d904592c0bf9818b621522c988bb8b0c05cdc3b15aea1b6e8db0c15",
    "30",
    "10000000000000000",
    "500000"
  ],
  "numDeployments": 1,
  "solcInputHash": "11bbdf4a763a89a5c5c0d4b0a65735f8",
  "bytecode": "0x6101606040523480156200001257600080fd5b50604051620019cf380380620019cf833981810160405281019062000038919062000294565b858073ffffffffffffffffffffffffffffffffffffffff1660808173ffffffffffffffffffffffffffffffffffffffff1681525050508573ffffffffffffffffffffffffffffffffffffffff166101408173ffffffffffffffffffffffffffffffffffffffff16815250508360c081815250508261010081815250508467ffffffffffffffff1660a08167ffffffffffffffff16815250508161012081815250506000600360006101000a81548160ff0219169083600181111562000102576200010162000330565b5b0217905550426000819055508063ffffffff1660e08163ffffffff16815250505050505050506200035f565b600080fd5b600073ffffffffffffffffffffffffffffffffffffffff82169050919050565b6000620001608262000133565b9050919050565b620001728162000153565b81146200017e57600080fd5b50565b600081519050620001928162000167565b92915050565b600067ffffffffffffffff82169050919050565b620001b78162000198565b8114620001c357600080fd5b50565b600081519050620001d781620001ac565b92915050565b6000819050919050565b620001f281620001dd565b8114620001fe57600080fd5b50565b6000815190506200021281620001e7565b92915050565b6000819050919050565b6200022d8162000218565b81146200023957600080fd5b50565b6000815190506200024d8162000222565b92915050565b600063ffffffff82169050919050565b6200026e8162000253565b81146200027a57600080fd5b50565b6000815190506200028e8162000263565b92915050565b60008060008060008060c08789031215620002b457620002b36200012e565b5b6000620002c489828a0162000181565b9650506020620002d789828a01620001c6565b9550506040620002ea89828a0162000201565b9450506060620002fd89828a016200023c565b93505060806200031089828a016200023c565b92505060a06200032389828a016200027d565b9150509295509295509295565b7f4e487b7100000000000000000000000000000000000000000000000000000000600052602160045260246000fd5b60805160a05160c05160e051610100516101205161014051611600620003cf600039600061061c0152600081816102fa01526103f70152600081816107de01526108870152600061069c0152600061065801526000610679015260008181610337015261038b01526116006000f3fe6080604052600436106100c25760003560e01c806353a2c19a1161007f57806391ad27b41161005957806391ad27b414610238578063c1c244e814610263578063e55ae4e81461028e578063fd6673f5146102cb576100c2565b806353a2c19a146101a45780635f1b0fd8146101cf5780636e04ff0d146101fa576100c2565b806309bc33a7146100c7578063115cbaf5146100f25780631fe543e31461011d5780632cfcc539146101465780634585e33b14610150578063473f1ddc14610179575b600080fd5b3480156100d357600080fd5b506100dc6102f6565b6040516100e99190610d05565b60405180910390f35b3480156100fe57600080fd5b5061010761031e565b6040516101149190610d97565b60405180910390f35b34801561012957600080fd5b50610144600480360381019061013f9190610f4b565b610335565b005b61014e6103f5565b005b34801561015c57600080fd5b5061017760048036038101906101729190611002565b610564565b005b34801561018557600080fd5b5061018e610755565b60405161019b9190611090565b60405180910390f35b3480156101b057600080fd5b506101b961077f565b6040516101c69190610d05565b60405180910390f35b3480156101db57600080fd5b506101e461078e565b6040516101f19190610d05565b60405180910390f35b34801561020657600080fd5b50610221600480360381019061021c9190611160565b61079b565b60405161022f929190611243565b60405180910390f35b34801561024457600080fd5b5061024d610883565b60405161025a9190610d05565b60405180910390f35b34801561026f57600080fd5b506102786108ab565b6040516102859190610d05565b60405180910390f35b34801561029a57600080fd5b506102b560048036038101906102b09190611273565b6108b4565b6040516102c29190611090565b60405180910390f35b3480156102d757600080fd5b506102e06108fc565b6040516102ed9190610d05565b60405180910390f35b60007f0000000000000000000000000000000000000000000000000000000000000000905090565b6000600360009054906101000a900460ff16905090565b7f000000000000000000000000000000000000000000000000000000000000000073ffffffffffffffffffffffffffffffffffffffff163373ffffffffffffffffffffffffffffffffffffffff16146103e757337f00000000000000000000000000000000000000000000000000000000000000006040517f1cf993f40000000000000000000000000000000000000000000000000000000081526004016103de9291906112a0565b60405180910390fd5b6103f1828261094d565b5050565b7f000000000000000000000000000000000000000000000000000000000000000034101561044f576040517f3038c00a00000000000000000000000000000000000000000000000000000000815260040160405180910390fd5b6000600181111561046357610462610d20565b5b600360009054906101000a900460ff16600181111561048557610484610d20565b5b146104bc576040517fd24a271400000000000000000000000000000000000000000000000000000000815260040160405180910390fd5b6002339080600181540180825580915050600190039060005260206000200160009091909190916101000a81548173ffffffffffffffffffffffffffffffffffffffff021916908373ffffffffffffffffffffffffffffffffffffffff1602179055503373ffffffffffffffffffffffffffffffffffffffff167f0805e1d667bddb8a95f0f09880cf94f403fb596ce79928d9f29b74203ba284d460405160405180910390a2565b600061057e6040518060200160405280600081525061079b565b509050806105ed5747600280549050600360009054906101000a900460ff1660018111156105af576105ae610d20565b5b6040517f584327aa0000000000000000000000000000000000000000000000000000000081526004016105e4939291906112c9565b60405180910390fd5b6001600360006101000a81548160ff0219169083600181111561061357610612610d20565b5b021790555060007f000000000000000000000000000000000000000000000000000000000000000073ffffffffffffffffffffffffffffffffffffffff16635d3b1d307f00000000000000000000000000000000000000000000000000000000000000007f000000000000000000000000000000000000000000000000000000000000000060037f000000000000000000000000000000000000000000000000000000000000000060016040518663ffffffff1660e01b81526004016106dd959493929190611378565b6020604051808303816000875af11580156106fc573d6000803e3d6000fd5b505050506040513d601f19601f8201168201806040525081019061072091906113e0565b9050807fcd6e45c8998311cab7e9d4385596cac867e20a0587194b954fa3a731c93ce78b60405160405180910390a250505050565b6000600160009054906101000a900473ffffffffffffffffffffffffffffffffffffffff16905090565b6000600163ffffffff16905090565b6000600361ffff16905090565b600060606000600360009054906101000a900460ff1660018111156107c3576107c2610d20565b5b600060018111156107d7576107d6610d20565b5b14905060007f00000000000000000000000000000000000000000000000000000000000000006000544261080b919061143c565b1190506000806002805490501190506000804711905082801561082b5750835b80156108345750805b801561083d5750815b9550856040518060400160405280600381526020017f30783000000000000000000000000000000000000000000000000000000000008152509550955050505050915091565b60007f0000000000000000000000000000000000000000000000000000000000000000905090565b60008054905090565b6000600282815481106108ca576108c9611470565b5b9060005260206000200160009054906101000a900473ffffffffffffffffffffffffffffffffffffffff169050919050565b60006109426040518060400160405280600f81526020017f636f756e74206f6620706c617965720000000000000000000000000000000000815250600280549050610b80565b600280549050905090565b60006002805490508260008151811061096957610968611470565b5b602002602001015161097b91906114ce565b905060006002828154811061099357610992611470565b5b9060005260206000200160009054906101000a900473ffffffffffffffffffffffffffffffffffffffff16905080600160006101000a81548173ffffffffffffffffffffffffffffffffffffffff021916908373ffffffffffffffffffffffffffffffffffffffff160217905550600067ffffffffffffffff811115610a1c57610a1b610e08565b5b604051908082528060200260200182016040528015610a4a5781602001602082028036833780820191505090505b5060029080519060200190610a60929190610c45565b506000600360006101000a81548160ff02191690836001811115610a8757610a86610d20565b5b02179055504260008190555060008173ffffffffffffffffffffffffffffffffffffffff1647604051610ab990611530565b60006040518083038185875af1925050503d8060008114610af6576040519150601f19603f3d011682016040523d82523d6000602084013e610afb565b606091505b5050905080610b36576040517fa1d04b3900000000000000000000000000000000000000000000000000000000815260040160405180910390fd5b8173ffffffffffffffffffffffffffffffffffffffff167f5b690ec4a06fe979403046eaeea5b3ce38524683c3001f662c8b5a829632f7df60405160405180910390a25050505050565b610c188282604051602401610b9692919061159a565b6040516020818303038152906040527fb60e72cc000000000000000000000000000000000000000000000000000000007bffffffffffffffffffffffffffffffffffffffffffffffffffffffff19166020820180517bffffffffffffffffffffffffffffffffffffffffffffffffffffffff8381831617835250505050610c1c565b5050565b60008151905060006a636f6e736f6c652e6c6f679050602083016000808483855afa5050505050565b828054828255906000526020600020908101928215610cbe579160200282015b82811115610cbd5782518260006101000a81548173ffffffffffffffffffffffffffffffffffffffff021916908373ffffffffffffffffffffffffffffffffffffffff16021790555091602001919060010190610c65565b5b509050610ccb9190610ccf565b5090565b5b80821115610ce8576000816000905550600101610cd0565b5090565b6000819050919050565b610cff81610cec565b82525050565b6000602082019050610d1a6000830184610cf6565b92915050565b7f4e487b7100000000000000000000000000000000000000000000000000000000600052602160045260246000fd5b60028110610d6057610d5f610d20565b5b50565b6000819050610d7182610d4f565b919050565b6000610d8182610d63565b9050919050565b610d9181610d76565b82525050565b6000602082019050610dac6000830184610d88565b92915050565b6000604051905090565b600080fd5b600080fd5b610dcf81610cec565b8114610dda57600080fd5b50565b600081359050610dec81610dc6565b92915050565b600080fd5b6000601f19601f8301169050919050565b7f4e487b7100000000000000000000000000000000000000000000000000000000600052604160045260246000fd5b610e4082610df7565b810181811067ffffffffffffffff82111715610e5f57610e5e610e08565b5b80604052505050565b6000610e72610db2565b9050610e7e8282610e37565b919050565b600067ffffffffffffffff821115610e9e57610e9d610e08565b5b602082029050602081019050919050565b600080fd5b6000610ec7610ec284610e83565b610e68565b90508083825260208201905060208402830185811115610eea57610ee9610eaf565b5b835b81811015610f135780610eff8882610ddd565b845260208401935050602081019050610eec565b5050509392505050565b600082601f830112610f3257610f31610df2565b5b8135610f42848260208601610eb4565b91505092915050565b60008060408385031215610f6257610f61610dbc565b5b6000610f7085828601610ddd565b925050602083013567ffffffffffffffff811115610f9157610f90610dc1565b5b610f9d85828601610f1d565b9150509250929050565b600080fd5b60008083601f840112610fc257610fc1610df2565b5b8235905067ffffffffffffffff811115610fdf57610fde610fa7565b5b602083019150836001820283011115610ffb57610ffa610eaf565b5b9250929050565b6000806020838503121561101957611018610dbc565b5b600083013567ffffffffffffffff81111561103757611036610dc1565b5b61104385828601610fac565b92509250509250929050565b600073ffffffffffffffffffffffffffffffffffffffff82169050919050565b600061107a8261104f565b9050919050565b61108a8161106f565b82525050565b60006020820190506110a56000830184611081565b92915050565b600080fd5b600067ffffffffffffffff8211156110cb576110ca610e08565b5b6110d482610df7565b9050602081019050919050565b82818337600083830152505050565b60006111036110fe846110b0565b610e68565b90508281526020810184848401111561111f5761111e6110ab565b5b61112a8482856110e1565b509392505050565b600082601f83011261114757611146610df2565b5b81356111578482602086016110f0565b91505092915050565b60006020828403121561117657611175610dbc565b5b600082013567ffffffffffffffff81111561119457611193610dc1565b5b6111a084828501611132565b91505092915050565b60008115159050919050565b6111be816111a9565b82525050565b600081519050919050565b600082825260208201905092915050565b60005b838110156111fe5780820151818401526020810190506111e3565b60008484015250505050565b6000611215826111c4565b61121f81856111cf565b935061122f8185602086016111e0565b61123881610df7565b840191505092915050565b600060408201905061125860008301856111b5565b818103602083015261126a818461120a565b90509392505050565b60006020828403121561128957611288610dbc565b5b600061129784828501610ddd565b91505092915050565b60006040820190506112b56000830185611081565b6112c26020830184611081565b9392505050565b60006060820190506112de6000830186610cf6565b6112eb6020830185610cf6565b6112f86040830184610cf6565b949350505050565b6000819050919050565b61131381611300565b82525050565b600067ffffffffffffffff82169050919050565b61133681611319565b82525050565b600061ffff82169050919050565b6113538161133c565b82525050565b600063ffffffff82169050919050565b61137281611359565b82525050565b600060a08201905061138d600083018861130a565b61139a602083018761132d565b6113a7604083018661134a565b6113b46060830185611369565b6113c16080830184611369565b9695505050505050565b6000815190506113da81610dc6565b92915050565b6000602082840312156113f6576113f5610dbc565b5b6000611404848285016113cb565b91505092915050565b7f4e487b7100000000000000000000000000000000000000000000000000000000600052601160045260246000fd5b600061144782610cec565b915061145283610cec565b925082820390508181111561146a5761146961140d565b5b92915050565b7f4e487b7100000000000000000000000000000000000000000000000000000000600052603260045260246000fd5b7f4e487b7100000000000000000000000000000000000000000000000000000000600052601260045260246000fd5b60006114d982610cec565b91506114e483610cec565b9250826114f4576114f361149f565b5b828206905092915050565b600081905092915050565b50565b600061151a6000836114ff565b91506115258261150a565b600082019050919050565b600061153b8261150d565b9150819050919050565b600081519050919050565b600082825260208201905092915050565b600061156c82611545565b6115768185611550565b93506115868185602086016111e0565b61158f81610df7565b840191505092915050565b600060408201905081810360008301526115b48185611561565b90506115c36020830184610cf6565b939250505056fea2646970667358221220b4e236e912691079e91b9afbe9eaec71aa13278a06ace64dd0c878c00603f2c164736f6c63430008110033",
  "devdoc": {
    "kind": "dev",
    "methods": {},
    "version": 1
  },
  "userdoc": {
    "kind": "user",
    "methods": {},
    "version": 1
  },
  "storageLayout": {
    "storage": [
      {
        "astId": 256,
        "contract": "contracts/Raffle.sol:Raffle",
        "label": "s_lastTimeStamp",
        "offset": 0,
        "slot": "0",
        "type": "t_uint256"
      },
      {
        "astId": 258,
        "contract": "contracts/Raffle.sol:Raffle",
        "label": "s_recentWinner",
        "offset": 0,
        "slot": "1",
        "type": "t_address"
      },
      {
        "astId": 261,
        "contract": "contracts/Raffle.sol:Raffle",
        "label": "s_players",
        "offset": 0,
        "slot": "2",
        "type": "t_array(t_address_payable)dyn_storage"
      },
      {
        "astId": 264,
        "contract": "contracts/Raffle.sol:Raffle",
        "label": "s_raffleState",
        "offset": 0,
        "slot": "3",
        "type": "t_enum(RaffleState)238"
      }
    ],
    "types": {
      "t_address": {
        "encoding": "inplace",
        "label": "address",
        "numberOfBytes": "20"
      },
      "t_address_payable": {
        "encoding": "inplace",
        "label": "address payable",
        "numberOfBytes": "20"
      },
      "t_array(t_address_payable)dyn_storage": {
        "base": "t_address_payable",
        "encoding": "dynamic_array",
        "label": "address payable[]",
        "numberOfBytes": "32"
      },
      "t_enum(RaffleState)238": {
        "encoding": "inplace",
        "label": "enum Raffle.RaffleState",
        "numberOfBytes": "1"
      },
      "t_uint256": {
        "encoding": "inplace",
        "label": "uint256",
        "numberOfBytes": "32"
      }
    }
  }
}